{
    "_format": "hh-sol-artifact-1",
    "contractName": "RoboPunkNFT",
    "sourceName": "contracts/RoboPunkNFT.sol",
    "abi": [
        {
            "inputs": [],
            "stateMutability": "payable",
            "type": "constructor"
        },
        {
            "anonymous": false,
            "inputs": [
                {
                    "indexed": true,
                    "internalType": "address",
                    "name": "owner",
                    "type": "address"
                },
                {
                    "indexed": true,
                    "internalType": "address",
                    "name": "approved",
                    "type": "address"
                },
                {
                    "indexed": true,
                    "internalType": "uint256",
                    "name": "tokenId",
                    "type": "uint256"
                }
            ],
            "name": "Approval",
            "type": "event"
        },
        {
            "anonymous": false,
            "inputs": [
                {
                    "indexed": true,
                    "internalType": "address",
                    "name": "owner",
                    "type": "address"
                },
                {
                    "indexed": true,
                    "internalType": "address",
                    "name": "operator",
                    "type": "address"
                },
                {
                    "indexed": false,
                    "internalType": "bool",
                    "name": "approved",
                    "type": "bool"
                }
            ],
            "name": "ApprovalForAll",
            "type": "event"
        },
        {
            "anonymous": false,
            "inputs": [
                {
                    "indexed": true,
                    "internalType": "address",
                    "name": "previousOwner",
                    "type": "address"
                },
                {
                    "indexed": true,
                    "internalType": "address",
                    "name": "newOwner",
                    "type": "address"
                }
            ],
            "name": "OwnershipTransferred",
            "type": "event"
        },
        {
            "anonymous": false,
            "inputs": [
                {
                    "indexed": true,
                    "internalType": "address",
                    "name": "from",
                    "type": "address"
                },
                {
                    "indexed": true,
                    "internalType": "address",
                    "name": "to",
                    "type": "address"
                },
                {
                    "indexed": true,
                    "internalType": "uint256",
                    "name": "tokenId",
                    "type": "uint256"
                }
            ],
            "name": "Transfer",
            "type": "event"
        },
        {
            "inputs": [
                {
                    "internalType": "address",
                    "name": "to",
                    "type": "address"
                },
                {
                    "internalType": "uint256",
                    "name": "tokenId",
                    "type": "uint256"
                }
            ],
            "name": "approve",
            "outputs": [],
            "stateMutability": "nonpayable",
            "type": "function"
        },
        {
            "inputs": [
                {
                    "internalType": "address",
                    "name": "owner",
                    "type": "address"
                }
            ],
            "name": "balanceOf",
            "outputs": [
                {
                    "internalType": "uint256",
                    "name": "",
                    "type": "uint256"
                }
            ],
            "stateMutability": "view",
            "type": "function"
        },
        {
            "inputs": [
                {
                    "internalType": "bool",
                    "name": "_status",
                    "type": "bool"
                }
            ],
            "name": "enable_public_mint",
            "outputs": [],
            "stateMutability": "nonpayable",
            "type": "function"
        },
        {
            "inputs": [
                {
                    "internalType": "uint256",
                    "name": "tokenId",
                    "type": "uint256"
                }
            ],
            "name": "getApproved",
            "outputs": [
                {
                    "internalType": "address",
                    "name": "",
                    "type": "address"
                }
            ],
            "stateMutability": "view",
            "type": "function"
        },
        {
            "inputs": [
                {
                    "internalType": "address",
                    "name": "owner",
                    "type": "address"
                },
                {
                    "internalType": "address",
                    "name": "operator",
                    "type": "address"
                }
            ],
            "name": "isApprovedForAll",
            "outputs": [
                {
                    "internalType": "bool",
                    "name": "",
                    "type": "bool"
                }
            ],
            "stateMutability": "view",
            "type": "function"
        },
        {
            "inputs": [],
            "name": "is_mint_enabled",
            "outputs": [
                {
                    "internalType": "bool",
                    "name": "",
                    "type": "bool"
                }
            ],
            "stateMutability": "view",
            "type": "function"
        },
        {
            "inputs": [],
            "name": "max_per_wallet",
            "outputs": [
                {
                    "internalType": "uint256",
                    "name": "",
                    "type": "uint256"
                }
            ],
            "stateMutability": "view",
            "type": "function"
        },
        {
            "inputs": [],
            "name": "max_supply",
            "outputs": [
                {
                    "internalType": "uint256",
                    "name": "",
                    "type": "uint256"
                }
            ],
            "stateMutability": "view",
            "type": "function"
        },
        {
            "inputs": [
                {
                    "internalType": "uint256",
                    "name": "quantity",
                    "type": "uint256"
                }
            ],
            "name": "mint",
            "outputs": [],
            "stateMutability": "payable",
            "type": "function"
        },
        {
            "inputs": [],
            "name": "mint_price",
            "outputs": [
                {
                    "internalType": "uint256",
                    "name": "",
                    "type": "uint256"
                }
            ],
            "stateMutability": "view",
            "type": "function"
        },
        {
            "inputs": [],
            "name": "name",
            "outputs": [
                {
                    "internalType": "string",
                    "name": "",
                    "type": "string"
                }
            ],
            "stateMutability": "view",
            "type": "function"
        },
        {
            "inputs": [],
            "name": "owner",
            "outputs": [
                {
                    "internalType": "address",
                    "name": "",
                    "type": "address"
                }
            ],
            "stateMutability": "view",
            "type": "function"
        },
        {
            "inputs": [
                {
                    "internalType": "uint256",
                    "name": "tokenId",
                    "type": "uint256"
                }
            ],
            "name": "ownerOf",
            "outputs": [
                {
                    "internalType": "address",
                    "name": "",
                    "type": "address"
                }
            ],
            "stateMutability": "view",
            "type": "function"
        },
        {
            "inputs": [],
            "name": "renounceOwnership",
            "outputs": [],
            "stateMutability": "nonpayable",
            "type": "function"
        },
        {
            "inputs": [
                {
                    "internalType": "address",
                    "name": "from",
                    "type": "address"
                },
                {
                    "internalType": "address",
                    "name": "to",
                    "type": "address"
                },
                {
                    "internalType": "uint256",
                    "name": "tokenId",
                    "type": "uint256"
                }
            ],
            "name": "safeTransferFrom",
            "outputs": [],
            "stateMutability": "nonpayable",
            "type": "function"
        },
        {
            "inputs": [
                {
                    "internalType": "address",
                    "name": "from",
                    "type": "address"
                },
                {
                    "internalType": "address",
                    "name": "to",
                    "type": "address"
                },
                {
                    "internalType": "uint256",
                    "name": "tokenId",
                    "type": "uint256"
                },
                {
                    "internalType": "bytes",
                    "name": "data",
                    "type": "bytes"
                }
            ],
            "name": "safeTransferFrom",
            "outputs": [],
            "stateMutability": "nonpayable",
            "type": "function"
        },
        {
            "inputs": [
                {
                    "internalType": "address",
                    "name": "operator",
                    "type": "address"
                },
                {
                    "internalType": "bool",
                    "name": "approved",
                    "type": "bool"
                }
            ],
            "name": "setApprovalForAll",
            "outputs": [],
            "stateMutability": "nonpayable",
            "type": "function"
        },
        {
            "inputs": [
                {
                    "internalType": "string",
                    "name": "uri",
                    "type": "string"
                }
            ],
            "name": "set_base_token_uri",
            "outputs": [],
            "stateMutability": "nonpayable",
            "type": "function"
        },
        {
            "inputs": [
                {
                    "internalType": "bytes4",
                    "name": "interfaceId",
                    "type": "bytes4"
                }
            ],
            "name": "supportsInterface",
            "outputs": [
                {
                    "internalType": "bool",
                    "name": "",
                    "type": "bool"
                }
            ],
            "stateMutability": "view",
            "type": "function"
        },
        {
            "inputs": [],
            "name": "symbol",
            "outputs": [
                {
                    "internalType": "string",
                    "name": "",
                    "type": "string"
                }
            ],
            "stateMutability": "view",
            "type": "function"
        },
        {
            "inputs": [
                {
                    "internalType": "uint256",
                    "name": "tokenId_",
                    "type": "uint256"
                }
            ],
            "name": "tokenURI",
            "outputs": [
                {
                    "internalType": "string",
                    "name": "",
                    "type": "string"
                }
            ],
            "stateMutability": "view",
            "type": "function"
        },
        {
            "inputs": [],
            "name": "total_supply",
            "outputs": [
                {
                    "internalType": "uint256",
                    "name": "",
                    "type": "uint256"
                }
            ],
            "stateMutability": "view",
            "type": "function"
        },
        {
            "inputs": [
                {
                    "internalType": "address",
                    "name": "from",
                    "type": "address"
                },
                {
                    "internalType": "address",
                    "name": "to",
                    "type": "address"
                },
                {
                    "internalType": "uint256",
                    "name": "tokenId",
                    "type": "uint256"
                }
            ],
            "name": "transferFrom",
            "outputs": [],
            "stateMutability": "nonpayable",
            "type": "function"
        },
        {
            "inputs": [
                {
                    "internalType": "address",
                    "name": "newOwner",
                    "type": "address"
                }
            ],
            "name": "transferOwnership",
            "outputs": [],
            "stateMutability": "nonpayable",
            "type": "function"
        },
        {
            "inputs": [
                {
                    "internalType": "address",
                    "name": "",
                    "type": "address"
                }
            ],
            "name": "wallet_mints",
            "outputs": [
                {
                    "internalType": "uint256",
                    "name": "",
                    "type": "uint256"
                }
            ],
            "stateMutability": "view",
            "type": "function"
        },
        {
            "inputs": [],
            "name": "withdraw",
            "outputs": [],
            "stateMutability": "nonpayable",
            "type": "function"
        },
        {
            "inputs": [],
            "name": "withdraw_wallet",
            "outputs": [
                {
                    "internalType": "address payable",
                    "name": "",
                    "type": "address"
                }
            ],
            "stateMutability": "view",
            "type": "function"
        }
    ],
    "bytecode": "0x60806040526040518060400160405280600981526020017f526f626f50756e6b7300000000000000000000000000000000000000000000008152506040518060400160405280600481526020017f524f424f00000000000000000000000000000000000000000000000000000000815250816000908051906020019062000088929190620001bf565b508060019080519060200190620000a1929190620001bf565b505050620000c4620000b8620000f160201b60201c565b620000f960201b60201c565b66470de4df82000060078190555060006008819055506103e86009819055506003600a81905550620002d4565b600033905090565b6000600660009054906101000a900473ffffffffffffffffffffffffffffffffffffffff16905081600660006101000a81548173ffffffffffffffffffffffffffffffffffffffff021916908373ffffffffffffffffffffffffffffffffffffffff1602179055508173ffffffffffffffffffffffffffffffffffffffff168173ffffffffffffffffffffffffffffffffffffffff167f8be0079c531659141344cd1fd0a4f28419497f9722a3daafe3b4186f6b6457e060405160405180910390a35050565b828054620001cd906200029e565b90600052602060002090601f016020900481019282620001f157600085556200023d565b82601f106200020c57805160ff19168380011785556200023d565b828001600101855582156200023d579182015b828111156200023c5782518255916020019190600101906200021f565b5b5090506200024c919062000250565b5090565b5b808211156200026b57600081600090555060010162000251565b5090565b7f4e487b7100000000000000000000000000000000000000000000000000000000600052602260045260246000fd5b60006002820490506001821680620002b757607f821691505b60208210811415620002ce57620002cd6200026f565b5b50919050565b61348f80620002e46000396000f3fe60806040526004361061019c5760003560e01c8063715018a6116100ec578063b88d4fde1161008a578063daf9960011610064578063daf99600146105a5578063db22a6d2146105d0578063e985e9c5146105fb578063f2fde38b146106385761019c565b8063b88d4fde14610516578063bae483d31461053f578063c87b56dd146105685761019c565b806395d89b41116100c657806395d89b411461047b578063a0712d68146104a6578063a22cb465146104c2578063ab53fcaa146104eb5761019c565b8063715018a61461040e5780638a333b50146104255780638da5cb5b146104505761019c565b80633940e9ee1161015957806353a2b86b1161013357806353a2b86b1461032e5780635e12091c1461036b5780636352211e1461039457806370a08231146103d15761019c565b80633940e9ee146102c35780633ccfd60b146102ee57806342842e0e146103055761019c565b806301ffc9a7146101a157806306fdde03146101de578063081812fc14610209578063095ea7b3146102465780631a4231a41461026f57806323b872dd1461029a575b600080fd5b3480156101ad57600080fd5b506101c860048036038101906101c39190611fc7565b610661565b6040516101d5919061200f565b60405180910390f35b3480156101ea57600080fd5b506101f3610743565b60405161020091906120c3565b60405180910390f35b34801561021557600080fd5b50610230600480360381019061022b919061211b565b6107d5565b60405161023d9190612189565b60405180910390f35b34801561025257600080fd5b5061026d600480360381019061026891906121d0565b61081b565b005b34801561027b57600080fd5b50610284610933565b604051610291919061221f565b60405180910390f35b3480156102a657600080fd5b506102c160048036038101906102bc919061223a565b610939565b005b3480156102cf57600080fd5b506102d8610999565b6040516102e5919061221f565b60405180910390f35b3480156102fa57600080fd5b5061030361099f565b005b34801561031157600080fd5b5061032c6004803603810190610327919061223a565b610a78565b005b34801561033a57600080fd5b506103556004803603810190610350919061228d565b610a98565b604051610362919061221f565b60405180910390f35b34801561037757600080fd5b50610392600480360381019061038d919061231f565b610ab0565b005b3480156103a057600080fd5b506103bb60048036038101906103b6919061211b565b610ace565b6040516103c89190612189565b60405180910390f35b3480156103dd57600080fd5b506103f860048036038101906103f3919061228d565b610b80565b604051610405919061221f565b60405180910390f35b34801561041a57600080fd5b50610423610c38565b005b34801561043157600080fd5b5061043a610c4c565b604051610447919061221f565b60405180910390f35b34801561045c57600080fd5b50610465610c52565b6040516104729190612189565b60405180910390f35b34801561048757600080fd5b50610490610c7c565b60405161049d91906120c3565b60405180910390f35b6104c060048036038101906104bb919061211b565b610d0e565b005b3480156104ce57600080fd5b506104e960048036038101906104e49190612398565b610ee5565b005b3480156104f757600080fd5b50610500610efb565b60405161050d919061221f565b60405180910390f35b34801561052257600080fd5b5061053d60048036038101906105389190612508565b610f01565b005b34801561054b57600080fd5b506105666004803603810190610561919061258b565b610f63565b005b34801561057457600080fd5b5061058f600480360381019061058a919061211b565b610f88565b60405161059c91906120c3565b60405180910390f35b3480156105b157600080fd5b506105ba611004565b6040516105c791906125d9565b60405180910390f35b3480156105dc57600080fd5b506105e561102a565b6040516105f2919061200f565b60405180910390f35b34801561060757600080fd5b50610622600480360381019061061d91906125f4565b61103d565b60405161062f919061200f565b60405180910390f35b34801561064457600080fd5b5061065f600480360381019061065a919061228d565b6110d1565b005b60007f80ac58cd000000000000000000000000000000000000000000000000000000007bffffffffffffffffffffffffffffffffffffffffffffffffffffffff1916827bffffffffffffffffffffffffffffffffffffffffffffffffffffffff1916148061072c57507f5b5e139f000000000000000000000000000000000000000000000000000000007bffffffffffffffffffffffffffffffffffffffffffffffffffffffff1916827bffffffffffffffffffffffffffffffffffffffffffffffffffffffff1916145b8061073c575061073b82611155565b5b9050919050565b60606000805461075290612663565b80601f016020809104026020016040519081016040528092919081815260200182805461077e90612663565b80156107cb5780601f106107a0576101008083540402835291602001916107cb565b820191906000526020600020905b8154815290600101906020018083116107ae57829003601f168201915b5050505050905090565b60006107e0826111bf565b6004600083815260200190815260200160002060009054906101000a900473ffffffffffffffffffffffffffffffffffffffff169050919050565b600061082682610ace565b90508073ffffffffffffffffffffffffffffffffffffffff168373ffffffffffffffffffffffffffffffffffffffff161415610897576040517f08c379a000000000000000000000000000000000000000000000000000000000815260040161088e90612707565b60405180910390fd5b8073ffffffffffffffffffffffffffffffffffffffff166108b661120a565b73ffffffffffffffffffffffffffffffffffffffff1614806108e557506108e4816108df61120a565b61103d565b5b610924576040517f08c379a000000000000000000000000000000000000000000000000000000000815260040161091b90612799565b60405180910390fd5b61092e8383611212565b505050565b60075481565b61094a61094461120a565b826112cb565b610989576040517f08c379a00000000000000000000000000000000000000000000000000000000081526004016109809061282b565b60405180910390fd5b610994838383611360565b505050565b60085481565b6109a76115c7565b6000600d60009054906101000a900473ffffffffffffffffffffffffffffffffffffffff1673ffffffffffffffffffffffffffffffffffffffff16476040516109ef9061287c565b60006040518083038185875af1925050503d8060008114610a2c576040519150601f19603f3d011682016040523d82523d6000602084013e610a31565b606091505b5050905080610a75576040517f08c379a0000000000000000000000000000000000000000000000000000000008152600401610a6c906128dd565b60405180910390fd5b50565b610a9383838360405180602001604052806000815250610f01565b505050565b600e6020528060005260406000206000915090505481565b610ab86115c7565b8181600c9190610ac9929190611eb8565b505050565b6000806002600084815260200190815260200160002060009054906101000a900473ffffffffffffffffffffffffffffffffffffffff169050600073ffffffffffffffffffffffffffffffffffffffff168173ffffffffffffffffffffffffffffffffffffffff161415610b77576040517f08c379a0000000000000000000000000000000000000000000000000000000008152600401610b6e90612949565b60405180910390fd5b80915050919050565b60008073ffffffffffffffffffffffffffffffffffffffff168273ffffffffffffffffffffffffffffffffffffffff161415610bf1576040517f08c379a0000000000000000000000000000000000000000000000000000000008152600401610be8906129db565b60405180910390fd5b600360008373ffffffffffffffffffffffffffffffffffffffff1673ffffffffffffffffffffffffffffffffffffffff168152602001908152602001600020549050919050565b610c406115c7565b610c4a6000611645565b565b60095481565b6000600660009054906101000a900473ffffffffffffffffffffffffffffffffffffffff16905090565b606060018054610c8b90612663565b80601f0160208091040260200160405190810160405280929190818152602001828054610cb790612663565b8015610d045780601f10610cd957610100808354040283529160200191610d04565b820191906000526020600020905b815481529060010190602001808311610ce757829003601f168201915b5050505050905090565b600b60009054906101000a900460ff16610d5d576040517f08c379a0000000000000000000000000000000000000000000000000000000008152600401610d5490612a47565b60405180910390fd5b60075481610d6b9190612a96565b3414610dac576040517f08c379a0000000000000000000000000000000000000000000000000000000008152600401610da390612b3c565b60405180910390fd5b60095481600854610dbd9190612b5c565b1115610dfe576040517f08c379a0000000000000000000000000000000000000000000000000000000008152600401610df590612bfe565b60405180910390fd5b600a5481600e60003373ffffffffffffffffffffffffffffffffffffffff1673ffffffffffffffffffffffffffffffffffffffff16815260200190815260200160002054610e4c9190612b5c565b1115610e8d576040517f08c379a0000000000000000000000000000000000000000000000000000000008152600401610e8490612c6a565b60405180910390fd5b60005b81811015610ee15760006001600854610ea99190612b5c565b905060086000815480929190610ebe90612c8a565b9190505550610ecd338261170b565b508080610ed990612c8a565b915050610e90565b5050565b610ef7610ef061120a565b8383611729565b5050565b600a5481565b610f12610f0c61120a565b836112cb565b610f51576040517f08c379a0000000000000000000000000000000000000000000000000000000008152600401610f489061282b565b60405180910390fd5b610f5d84848484611896565b50505050565b610f6b6115c7565b80600b60006101000a81548160ff02191690831515021790555050565b6060610f93826118f2565b610fd2576040517f08c379a0000000000000000000000000000000000000000000000000000000008152600401610fc990612d1f565b60405180910390fd5b600c610fdd8361195e565b604051602001610fee929190612e5b565b6040516020818303038152906040529050919050565b600d60009054906101000a900473ffffffffffffffffffffffffffffffffffffffff1681565b600b60009054906101000a900460ff1681565b6000600560008473ffffffffffffffffffffffffffffffffffffffff1673ffffffffffffffffffffffffffffffffffffffff16815260200190815260200160002060008373ffffffffffffffffffffffffffffffffffffffff1673ffffffffffffffffffffffffffffffffffffffff16815260200190815260200160002060009054906101000a900460ff16905092915050565b6110d96115c7565b600073ffffffffffffffffffffffffffffffffffffffff168173ffffffffffffffffffffffffffffffffffffffff161415611149576040517f08c379a000000000000000000000000000000000000000000000000000000000815260040161114090612efc565b60405180910390fd5b61115281611645565b50565b60007f01ffc9a7000000000000000000000000000000000000000000000000000000007bffffffffffffffffffffffffffffffffffffffffffffffffffffffff1916827bffffffffffffffffffffffffffffffffffffffffffffffffffffffff1916149050919050565b6111c8816118f2565b611207576040517f08c379a00000000000000000000000000000000000000000000000000000000081526004016111fe90612949565b60405180910390fd5b50565b600033905090565b816004600083815260200190815260200160002060006101000a81548173ffffffffffffffffffffffffffffffffffffffff021916908373ffffffffffffffffffffffffffffffffffffffff160217905550808273ffffffffffffffffffffffffffffffffffffffff1661128583610ace565b73ffffffffffffffffffffffffffffffffffffffff167f8c5be1e5ebec7d5bd14f71427d1e84f3dd0314c0f7b2291e5b200ac8c7c3b92560405160405180910390a45050565b6000806112d783610ace565b90508073ffffffffffffffffffffffffffffffffffffffff168473ffffffffffffffffffffffffffffffffffffffff1614806113195750611318818561103d565b5b8061135757508373ffffffffffffffffffffffffffffffffffffffff1661133f846107d5565b73ffffffffffffffffffffffffffffffffffffffff16145b91505092915050565b8273ffffffffffffffffffffffffffffffffffffffff1661138082610ace565b73ffffffffffffffffffffffffffffffffffffffff16146113d6576040517f08c379a00000000000000000000000000000000000000000000000000000000081526004016113cd90612f8e565b60405180910390fd5b600073ffffffffffffffffffffffffffffffffffffffff168273ffffffffffffffffffffffffffffffffffffffff161415611446576040517f08c379a000000000000000000000000000000000000000000000000000000000815260040161143d90613020565b60405180910390fd5b611451838383611abf565b61145c600082611212565b6001600360008573ffffffffffffffffffffffffffffffffffffffff1673ffffffffffffffffffffffffffffffffffffffff16815260200190815260200160002060008282546114ac9190613040565b925050819055506001600360008473ffffffffffffffffffffffffffffffffffffffff1673ffffffffffffffffffffffffffffffffffffffff16815260200190815260200160002060008282546115039190612b5c565b92505081905550816002600083815260200190815260200160002060006101000a81548173ffffffffffffffffffffffffffffffffffffffff021916908373ffffffffffffffffffffffffffffffffffffffff160217905550808273ffffffffffffffffffffffffffffffffffffffff168473ffffffffffffffffffffffffffffffffffffffff167fddf252ad1be2c89b69c2b068fc378daa952ba7f163c4a11628f55a4df523b3ef60405160405180910390a46115c2838383611ac4565b505050565b6115cf61120a565b73ffffffffffffffffffffffffffffffffffffffff166115ed610c52565b73ffffffffffffffffffffffffffffffffffffffff1614611643576040517f08c379a000000000000000000000000000000000000000000000000000000000815260040161163a906130c0565b60405180910390fd5b565b6000600660009054906101000a900473ffffffffffffffffffffffffffffffffffffffff16905081600660006101000a81548173ffffffffffffffffffffffffffffffffffffffff021916908373ffffffffffffffffffffffffffffffffffffffff1602179055508173ffffffffffffffffffffffffffffffffffffffff168173ffffffffffffffffffffffffffffffffffffffff167f8be0079c531659141344cd1fd0a4f28419497f9722a3daafe3b4186f6b6457e060405160405180910390a35050565b611725828260405180602001604052806000815250611ac9565b5050565b8173ffffffffffffffffffffffffffffffffffffffff168373ffffffffffffffffffffffffffffffffffffffff161415611798576040517f08c379a000000000000000000000000000000000000000000000000000000000815260040161178f9061312c565b60405180910390fd5b80600560008573ffffffffffffffffffffffffffffffffffffffff1673ffffffffffffffffffffffffffffffffffffffff16815260200190815260200160002060008473ffffffffffffffffffffffffffffffffffffffff1673ffffffffffffffffffffffffffffffffffffffff16815260200190815260200160002060006101000a81548160ff0219169083151502179055508173ffffffffffffffffffffffffffffffffffffffff168373ffffffffffffffffffffffffffffffffffffffff167f17307eab39ab6107e8899845ad3d59bd9653f200f220920489ca2b5937696c3183604051611889919061200f565b60405180910390a3505050565b6118a1848484611360565b6118ad84848484611b24565b6118ec576040517f08c379a00000000000000000000000000000000000000000000000000000000081526004016118e3906131be565b60405180910390fd5b50505050565b60008073ffffffffffffffffffffffffffffffffffffffff166002600084815260200190815260200160002060009054906101000a900473ffffffffffffffffffffffffffffffffffffffff1673ffffffffffffffffffffffffffffffffffffffff1614159050919050565b606060008214156119a6576040518060400160405280600181526020017f30000000000000000000000000000000000000000000000000000000000000008152509050611aba565b600082905060005b600082146119d85780806119c190612c8a565b915050600a826119d1919061320d565b91506119ae565b60008167ffffffffffffffff8111156119f4576119f36123dd565b5b6040519080825280601f01601f191660200182016040528015611a265781602001600182028036833780820191505090505b5090505b60008514611ab357600182611a3f9190613040565b9150600a85611a4e919061323e565b6030611a5a9190612b5c565b60f81b818381518110611a7057611a6f61326f565b5b60200101907effffffffffffffffffffffffffffffffffffffffffffffffffffffffffffff1916908160001a905350600a85611aac919061320d565b9450611a2a565b8093505050505b919050565b505050565b505050565b611ad38383611cbb565b611ae06000848484611b24565b611b1f576040517f08c379a0000000000000000000000000000000000000000000000000000000008152600401611b16906131be565b60405180910390fd5b505050565b6000611b458473ffffffffffffffffffffffffffffffffffffffff16611e95565b15611cae578373ffffffffffffffffffffffffffffffffffffffff1663150b7a02611b6e61120a565b8786866040518563ffffffff1660e01b8152600401611b9094939291906132f3565b602060405180830381600087803b158015611baa57600080fd5b505af1925050508015611bdb57506040513d601f19601f82011682018060405250810190611bd89190613354565b60015b611c5e573d8060008114611c0b576040519150601f19603f3d011682016040523d82523d6000602084013e611c10565b606091505b50600081511415611c56576040517f08c379a0000000000000000000000000000000000000000000000000000000008152600401611c4d906131be565b60405180910390fd5b805181602001fd5b63150b7a0260e01b7bffffffffffffffffffffffffffffffffffffffffffffffffffffffff1916817bffffffffffffffffffffffffffffffffffffffffffffffffffffffff191614915050611cb3565b600190505b949350505050565b600073ffffffffffffffffffffffffffffffffffffffff168273ffffffffffffffffffffffffffffffffffffffff161415611d2b576040517f08c379a0000000000000000000000000000000000000000000000000000000008152600401611d22906133cd565b60405180910390fd5b611d34816118f2565b15611d74576040517f08c379a0000000000000000000000000000000000000000000000000000000008152600401611d6b90613439565b60405180910390fd5b611d8060008383611abf565b6001600360008473ffffffffffffffffffffffffffffffffffffffff1673ffffffffffffffffffffffffffffffffffffffff1681526020019081526020016000206000828254611dd09190612b5c565b92505081905550816002600083815260200190815260200160002060006101000a81548173ffffffffffffffffffffffffffffffffffffffff021916908373ffffffffffffffffffffffffffffffffffffffff160217905550808273ffffffffffffffffffffffffffffffffffffffff16600073ffffffffffffffffffffffffffffffffffffffff167fddf252ad1be2c89b69c2b068fc378daa952ba7f163c4a11628f55a4df523b3ef60405160405180910390a4611e9160008383611ac4565b5050565b6000808273ffffffffffffffffffffffffffffffffffffffff163b119050919050565b828054611ec490612663565b90600052602060002090601f016020900481019282611ee65760008555611f2d565b82601f10611eff57803560ff1916838001178555611f2d565b82800160010185558215611f2d579182015b82811115611f2c578235825591602001919060010190611f11565b5b509050611f3a9190611f3e565b5090565b5b80821115611f57576000816000905550600101611f3f565b5090565b6000604051905090565b600080fd5b600080fd5b60007fffffffff0000000000000000000000000000000000000000000000000000000082169050919050565b611fa481611f6f565b8114611faf57600080fd5b50565b600081359050611fc181611f9b565b92915050565b600060208284031215611fdd57611fdc611f65565b5b6000611feb84828501611fb2565b91505092915050565b60008115159050919050565b61200981611ff4565b82525050565b60006020820190506120246000830184612000565b92915050565b600081519050919050565b600082825260208201905092915050565b60005b83811015612064578082015181840152602081019050612049565b83811115612073576000848401525b50505050565b6000601f19601f8301169050919050565b60006120958261202a565b61209f8185612035565b93506120af818560208601612046565b6120b881612079565b840191505092915050565b600060208201905081810360008301526120dd818461208a565b905092915050565b6000819050919050565b6120f8816120e5565b811461210357600080fd5b50565b600081359050612115816120ef565b92915050565b60006020828403121561213157612130611f65565b5b600061213f84828501612106565b91505092915050565b600073ffffffffffffffffffffffffffffffffffffffff82169050919050565b600061217382612148565b9050919050565b61218381612168565b82525050565b600060208201905061219e600083018461217a565b92915050565b6121ad81612168565b81146121b857600080fd5b50565b6000813590506121ca816121a4565b92915050565b600080604083850312156121e7576121e6611f65565b5b60006121f5858286016121bb565b925050602061220685828601612106565b9150509250929050565b612219816120e5565b82525050565b60006020820190506122346000830184612210565b92915050565b60008060006060848603121561225357612252611f65565b5b6000612261868287016121bb565b9350506020612272868287016121bb565b925050604061228386828701612106565b9150509250925092565b6000602082840312156122a3576122a2611f65565b5b60006122b1848285016121bb565b91505092915050565b600080fd5b600080fd5b600080fd5b60008083601f8401126122df576122de6122ba565b5b8235905067ffffffffffffffff8111156122fc576122fb6122bf565b5b602083019150836001820283011115612318576123176122c4565b5b9250929050565b6000806020838503121561233657612335611f65565b5b600083013567ffffffffffffffff81111561235457612353611f6a565b5b612360858286016122c9565b92509250509250929050565b61237581611ff4565b811461238057600080fd5b50565b6000813590506123928161236c565b92915050565b600080604083850312156123af576123ae611f65565b5b60006123bd858286016121bb565b92505060206123ce85828601612383565b9150509250929050565b600080fd5b7f4e487b7100000000000000000000000000000000000000000000000000000000600052604160045260246000fd5b61241582612079565b810181811067ffffffffffffffff82111715612434576124336123dd565b5b80604052505050565b6000612447611f5b565b9050612453828261240c565b919050565b600067ffffffffffffffff821115612473576124726123dd565b5b61247c82612079565b9050602081019050919050565b82818337600083830152505050565b60006124ab6124a684612458565b61243d565b9050828152602081018484840111156124c7576124c66123d8565b5b6124d2848285612489565b509392505050565b600082601f8301126124ef576124ee6122ba565b5b81356124ff848260208601612498565b91505092915050565b6000806000806080858703121561252257612521611f65565b5b6000612530878288016121bb565b9450506020612541878288016121bb565b935050604061255287828801612106565b925050606085013567ffffffffffffffff81111561257357612572611f6a565b5b61257f878288016124da565b91505092959194509250565b6000602082840312156125a1576125a0611f65565b5b60006125af84828501612383565b91505092915050565b60006125c382612148565b9050919050565b6125d3816125b8565b82525050565b60006020820190506125ee60008301846125ca565b92915050565b6000806040838503121561260b5761260a611f65565b5b6000612619858286016121bb565b925050602061262a858286016121bb565b9150509250929050565b7f4e487b7100000000000000000000000000000000000000000000000000000000600052602260045260246000fd5b6000600282049050600182168061267b57607f821691505b6020821081141561268f5761268e612634565b5b50919050565b7f4552433732313a20617070726f76616c20746f2063757272656e74206f776e6560008201527f7200000000000000000000000000000000000000000000000000000000000000602082015250565b60006126f1602183612035565b91506126fc82612695565b604082019050919050565b60006020820190508181036000830152612720816126e4565b9050919050565b7f4552433732313a20617070726f76652063616c6c6572206973206e6f7420746f60008201527f6b656e206f776e6572206e6f7220617070726f76656420666f7220616c6c0000602082015250565b6000612783603e83612035565b915061278e82612727565b604082019050919050565b600060208201905081810360008301526127b281612776565b9050919050565b7f4552433732313a2063616c6c6572206973206e6f7420746f6b656e206f776e6560008201527f72206e6f7220617070726f766564000000000000000000000000000000000000602082015250565b6000612815602e83612035565b9150612820826127b9565b604082019050919050565b6000602082019050818103600083015261284481612808565b9050919050565b600081905092915050565b50565b600061286660008361284b565b915061287182612856565b600082019050919050565b600061288782612859565b9150819050919050565b7f7769746864726177206661696c65640000000000000000000000000000000000600082015250565b60006128c7600f83612035565b91506128d282612891565b602082019050919050565b600060208201905081810360008301526128f6816128ba565b9050919050565b7f4552433732313a20696e76616c696420746f6b656e2049440000000000000000600082015250565b6000612933601883612035565b915061293e826128fd565b602082019050919050565b6000602082019050818103600083015261296281612926565b9050919050565b7f4552433732313a2061646472657373207a65726f206973206e6f74206120766160008201527f6c6964206f776e65720000000000000000000000000000000000000000000000602082015250565b60006129c5602983612035565b91506129d082612969565b604082019050919050565b600060208201905081810360008301526129f4816129b8565b9050919050565b7f4e4654206e6f74206f70656e20666f72207075626c6963207965740000000000600082015250565b6000612a31601b83612035565b9150612a3c826129fb565b602082019050919050565b60006020820190508181036000830152612a6081612a24565b9050919050565b7f4e487b7100000000000000000000000000000000000000000000000000000000600052601160045260246000fd5b6000612aa1826120e5565b9150612aac836120e5565b9250817fffffffffffffffffffffffffffffffffffffffffffffffffffffffffffffffff0483118215151615612ae557612ae4612a67565b5b828202905092915050565b7f696e73756666696369656e7420616d6f756e7420706173736564000000000000600082015250565b6000612b26601a83612035565b9150612b3182612af0565b602082019050919050565b60006020820190508181036000830152612b5581612b19565b9050919050565b6000612b67826120e5565b9150612b72836120e5565b9250827fffffffffffffffffffffffffffffffffffffffffffffffffffffffffffffffff03821115612ba757612ba6612a67565b5b828201905092915050565b7f536f6c64206f7574000000000000000000000000000000000000000000000000600082015250565b6000612be8600883612035565b9150612bf382612bb2565b602082019050919050565b60006020820190508181036000830152612c1781612bdb565b9050919050565b7f4d6178696d756d207065722077616c6c65742072656163686564000000000000600082015250565b6000612c54601a83612035565b9150612c5f82612c1e565b602082019050919050565b60006020820190508181036000830152612c8381612c47565b9050919050565b6000612c95826120e5565b91507fffffffffffffffffffffffffffffffffffffffffffffffffffffffffffffffff821415612cc857612cc7612a67565b5b600182019050919050565b7f546f6b656e20646f6573206e6f74206578697374730000000000000000000000600082015250565b6000612d09601583612035565b9150612d1482612cd3565b602082019050919050565b60006020820190508181036000830152612d3881612cfc565b9050919050565b600081905092915050565b60008190508160005260206000209050919050565b60008154612d6c81612663565b612d768186612d3f565b94506001821660008114612d915760018114612da257612dd5565b60ff19831686528186019350612dd5565b612dab85612d4a565b60005b83811015612dcd57815481890152600182019150602081019050612dae565b838801955050505b50505092915050565b6000612de98261202a565b612df38185612d3f565b9350612e03818560208601612046565b80840191505092915050565b7f2e6a736f6e000000000000000000000000000000000000000000000000000000600082015250565b6000612e45600583612d3f565b9150612e5082612e0f565b600582019050919050565b6000612e678285612d5f565b9150612e738284612dde565b9150612e7e82612e38565b91508190509392505050565b7f4f776e61626c653a206e6577206f776e657220697320746865207a65726f206160008201527f6464726573730000000000000000000000000000000000000000000000000000602082015250565b6000612ee6602683612035565b9150612ef182612e8a565b604082019050919050565b60006020820190508181036000830152612f1581612ed9565b9050919050565b7f4552433732313a207472616e736665722066726f6d20696e636f72726563742060008201527f6f776e6572000000000000000000000000000000000000000000000000000000602082015250565b6000612f78602583612035565b9150612f8382612f1c565b604082019050919050565b60006020820190508181036000830152612fa781612f6b565b9050919050565b7f4552433732313a207472616e7366657220746f20746865207a65726f2061646460008201527f7265737300000000000000000000000000000000000000000000000000000000602082015250565b600061300a602483612035565b915061301582612fae565b604082019050919050565b6000602082019050818103600083015261303981612ffd565b9050919050565b600061304b826120e5565b9150613056836120e5565b92508282101561306957613068612a67565b5b828203905092915050565b7f4f776e61626c653a2063616c6c6572206973206e6f7420746865206f776e6572600082015250565b60006130aa602083612035565b91506130b582613074565b602082019050919050565b600060208201905081810360008301526130d98161309d565b9050919050565b7f4552433732313a20617070726f766520746f2063616c6c657200000000000000600082015250565b6000613116601983612035565b9150613121826130e0565b602082019050919050565b6000602082019050818103600083015261314581613109565b9050919050565b7f4552433732313a207472616e7366657220746f206e6f6e20455243373231526560008201527f63656976657220696d706c656d656e7465720000000000000000000000000000602082015250565b60006131a8603283612035565b91506131b38261314c565b604082019050919050565b600060208201905081810360008301526131d78161319b565b9050919050565b7f4e487b7100000000000000000000000000000000000000000000000000000000600052601260045260246000fd5b6000613218826120e5565b9150613223836120e5565b925082613233576132326131de565b5b828204905092915050565b6000613249826120e5565b9150613254836120e5565b925082613264576132636131de565b5b828206905092915050565b7f4e487b7100000000000000000000000000000000000000000000000000000000600052603260045260246000fd5b600081519050919050565b600082825260208201905092915050565b60006132c58261329e565b6132cf81856132a9565b93506132df818560208601612046565b6132e881612079565b840191505092915050565b6000608082019050613308600083018761217a565b613315602083018661217a565b6133226040830185612210565b818103606083015261333481846132ba565b905095945050505050565b60008151905061334e81611f9b565b92915050565b60006020828403121561336a57613369611f65565b5b60006133788482850161333f565b91505092915050565b7f4552433732313a206d696e7420746f20746865207a65726f2061646472657373600082015250565b60006133b7602083612035565b91506133c282613381565b602082019050919050565b600060208201905081810360008301526133e6816133aa565b9050919050565b7f4552433732313a20746f6b656e20616c7265616479206d696e74656400000000600082015250565b6000613423601c83612035565b915061342e826133ed565b602082019050919050565b6000602082019050818103600083015261345281613416565b905091905056fea2646970667358221220867487ed546c1e5300241e438ffbff33481a79657aaf32c261dd6c5f696c12a164736f6c63430008090033",
    "linkReferences": {},
    "deployedLinkReferences": {}
}